:020000040000FA
:02000000FA2BD9
:100430003D223D223D222D2208003D223D22532215
:100440002D2208006D220823C922232A00283D22DC
:100450003D22532253222D2208008312051106301B
:10046000A2001330A100AD30A000A00B352AA10BD3
:10047000352AA20B352A3C2A0800831205159C3028
:10048000A100D730A000A00B432AA10B432A83125E
:1004900005118230A100DD30A000A00B4D2AA10B78
:1004A0004D2A522A0800831205150230A200863018
:1004B000A1009930A000A00B5B2AA10B5B2AA20B24
:1004C0005B2A831205118230A100DD30A000A00B51
:1004D000672AA10B672A6C2A08000730831299004B
:1004E00083169901850183128501831605118312F4
:1004F0000511831685128312851683160512831241
:1005000005121F1383160514851433309F000B1733
:100510008B171822831285120D30A500AF30A4006E
:10052000B630A300A30B922AA40B922AA50B922A01
:10053000000008008312A4009F011F131F149F17BF
:10054000A72A9F111F15B72A9F111F11B72A240828
:10055000A200A3012308003A0319AF2AB72A2208F0
:10056000013A0319A12A033A0319A42AB72A0C1342
:100570002130A200A20BBA2A83129F140C1FC12A99
:10058000C22ABE2A1E08A10083161E088312A000DC
:10059000080002309A2283122108A6002008A50034
:1005A00000302602C830031925020318D82AD92A98
:1005B000DC2A85160512072B00302602C8300319E5
:1005C0002502031CE42AE52AF02A03302602A23081
:1005D000031925020318ED2AEE2AF02A0512072B2B
:1005E00003302602A23003192502031CF82AF92A37
:1005F000042B03302602CA30031925020318012BED
:10060000022B042B0516072B051685161822080049
:100610008312C701C801C501C60101309A228312A5
:100620004508B0003007313E840020088313800065
:10063000840A210880000130C5070318C60A00306B
:10064000C6074608803ADF0080305F02031D2A2B70
:100650000A304502031C2D2B2E2B0D2B313062232B
:1006600083123C08C8003B08C700003048025630DF
:1006700003194702031C3D2B3E2B4A2B0030480236
:100680008230031947020318462B472B4A2B851249
:100690000511612B00304802563003194702031838
:1006A000522B532B562B85161D22612B00304802EE
:1006B000823003194702031C5E2B5F2B612B8516CA
:1006C000272208008312AD00AB01AC018312AE01FA
:1006D000AF01CE2B83122E08A00020072D07A1000A
:1006E0002108840083130008A200840A0008A300E4
:1006F0002E08A40024072D07A5002508023E84002B
:100700000008A600840A0008A7002708803AA8006D
:100710002308803A2802031D8F2B22082602031883
:10072000922B932BC72B83122E08A00020072D0796
:10073000A1002108840083130008A900840A00088E
:10074000AA002E08A00020072D07A1002108023EC4
:1007500084000008A200840A0008A3002E08A40058
:1007600024072D07A5002508840022088000840A9C
:10077000230880002E08A00020072D07A1002108D3
:10078000023E840029088000840A2A088000013083
:100790008312AE070318AF0A0030AF070930A0007C
:1007A0002B082002A1002C090318013EA2002F08EB
:1007B000803AA3002208803A2302031DE12B21087E
:1007C0002E02031CE42BE52B6A2B01308312AB07AE
:1007D0000318AC0A0030AC072C08803ADF008030E8
:1007E0005F02031DF52B09302B02031CF82BF92B9C
:0E07F000662B08008312C701C8018301222A6C
:02400E00F4318B
:00000001FF
