:04000000803118280B
:100008007E14803141018C1E0A280B2816280530E1
:1000180043019C0001304001B1070030B23D41016D
:100028008C1296167E10090080311A28FD012030A6
:1000380084000030850042308431632480317E1092
:1000480040018431292C7D08F3000130F335890BF8
:100058002A2872087307860087017008C03F710854
:10006800C13F09307D0203183A283B28C1287D0882
:10007800F3000130F335890B3E28720873078600B8
:100088008701403FF400413FF5007D357207F600D7
:100098007608023E86008701403FF700413FF8009E
:1000A80075087802031D5A287408770203185D281A
:1000B8005E28C1287D08FB0009307B02031C6528E7
:1000C8006628672845297B08F3000130F335890B3A
:1000D8006A287208730786008701403FF400413F91
:1000E800F5007B357207F6007608023E8600870128
:1000F800403FF700413FF80075087802031D862845
:1001080074087702031889288A28B8287B08F3001E
:100118000130F335890B8D28720873078600870133
:10012800403FF900413FFA007B357207F30073083E
:10013800023E860087017B08F4000130F435890B04
:10014800A2287208740784008501403F803F413F20
:10015800813F7B357207F3007308023E86008701F2
:100168007908C03F7A08C13F0130FB0709307B029C
:10017800031CBF28C028672845297D080319C528FE
:10018800C62845297D357207F3007308FE3E8600B0
:100198008701403FF400413FF5007D08F60001303B
:1001A800F635890BD4287208760786008701403F08
:1001B800F700413FF80075087802031DE528740828
:1001C80077020318E828E92845297D08FC007C08FF
:1001D800031DEF28F028F12845297C357207F30024
:1001E8007308FE3E86008701403FF400413FF5005A
:1001F8007C08F6000130F635890BFF28720876076F
:1002080086008701403FF700413FF80075087802F3
:10021800031D102974087702031813291429422989
:100228007C08F3000130F335890B1729720873072E
:1002380086008701403FF900413FFA007C3572078C
:10024800F3007308FE3E860087017C08F400013045
:10025800F435890B2C297208740784008501403F06
:10026800803F413F813F7C357207F3007308FE3EB3
:10027800860087017908C03F7A08C13F0130FC0237
:10028800EB280130FD070A307D02031C4C294D295B
:100298004E29FD0172080A3E86008701403FF000A2
:1002A800413FF10008004001E201E3014101901DD6
:1002B8005E295F29222A7A011E084001E3007A019B
:1002C8001D084001E2001A2A6308F1006208F000E4
:1002D8004E30F20080312720813171084001E5005D
:1002E8007008E40000306502613003196402031CE1
:1002F8007E297F299229003065029430031964020F
:100308000318872988299229B9198B298C298E29BC
:1003180098128F299816B9103911A9290030650249
:1003280061300319640203189A299B299E2998169B
:10033800B914A92900306502943003196402031C1A
:10034800A629A729A9299816391584314A24813163
:1003580001304001B300222A6308F1006208F0006E
:100368003A30F20080312720813171084001E500E0
:100378007008E40000306502C830031964020318ED
:10038800C629C729CA299816B911142A0030650246
:10039800C93003196402031CD229D329E92903307F
:1003A8006502A230031964020318DB29DC29E92954
:1003B800B918DF29E029E6293919E329E429E629CA
:1003C8009812E7299816B911142A03306502A33048
:1003D80003196402031CF129F229082A0330650273
:1003E800CA30031964020318FA29FB29082AB91824
:1003F800FE29FF29052A3919022A032A052A9812F3
:10040800062A9816B911142A03306502CB3003194D
:100418006402031C102A112A142A9816B915142AE2
:1004280084313B2481314001B301222A3308003A48
:1004380003196829013A0319B029222A0800400142
:10044800E601E501612AB91C2A2A2B2A2F2A023043
:10045800E6000130E500391A322A332A6F2A0130C2
:10046800B4006F2A391D392A3A2A3E2A0230E6009A
:100478000230E500391A412A422A6F2A0230B400B4
:100488006F2AB91D482A492A4C2A0330E600E5019B
:10049800391A4F2A502A6F2A0330B4006F2AB91E1E
:1004A800562A572A5A2AE6010130E500391A5D2AE8
:1004B8005E2A6F2AB401B9126F2A3408003A031968
:1004C800272A013A0319362A033A0319452A013A19
:1004D8000319532A6F2A66086507E200E301972A81
:1004E8006208FF3EF900FF3003180030FA00630885
:1004F80079067A04031D812A822A8C2A7830F6002C
:100508000030F700F801F80A8331A5238231942AD4
:100518007830F6000030F700F8018331A5238231E6
:1005280001304001E30766086302031C9C2A9D2AE8
:10053800742AE401CA2A6208FF3EF900FF30031852
:100548000030FA0066086407FB00FC01FC0D7A081D
:100558007C06031DB12A79087B06031DB42AB52A37
:10056800BF2A2C30F6000130F700F801F80A833171
:10057800A5238231C72A2C30F6000130F700F80194
:100588008331A523823101304001E4076508640204
:10059800031CCF2AD02A9F2A0800442B3808370684
:1005A8000319D72AD82A532B0330F000380884318E
:1005B80016248231203E86008701403F4001AF006B
:1005C800413FB0000330F0003808843116248231EE
:1005D800223E8600870101084001B5000530F00081
:1005E8000030F1003808013EF200003003180130F5
:1005F800F30083315423823170084001B800181584
:10060800B101B2010130B6003916532B300832025D
:10061800031D102B2F083102031C132B142B532BF3
:10062800B101B2010230B6001811532B003032026A
:10063800503003193102031C222B232B532BB101F9
:10064800B2013508031D292B2A2B2C2BB601532B5D
:100658003503031D302B312B532B0330B600532B9E
:1006680005303202143003193102031C3C2B3D2B98
:10067800532BB101B201B801B701B6013912532B9E
:1006880040013608003A0319D22A013A03190A2B05
:10069800033A03191A2B013A0319342B532B080078
:1006A800F501F31F582B592B602BF209F309F20AB5
:1006B8000319F30A0130F500F11F632B642B692B32
:1006C800F009F109F00A0319F10A70087104031915
:1006D8006E2B6F2B962B0130F400792B0130F035FF
:1006E800F10D890B732B0130F407F11F7C2B7D2B47
:1006F800722B71087302031D832B70087202031C8E
:10070800862B872B8B2B7008F2027108F33B013084
:10071800F136F00C890B8C2B0130F402031D952B5C
:10072800962B7D2B750803199A2B9B2BA02BF2096E
:10073800F309F20A0319F30A7308F1007208F000CA
:1007480008000530F0000030F10040013708013E94
:10075800F200003003180130F30083315423833151
:1007680040013808700671040319BB2BBC2BE72B1A
:100778000330F0003708843116248331203E860088
:1007880087017608C03F7708C13F0330F000400179
:100798003708843116248331223E86008701780881
:1007A80081000530F0000030F10040013708013EBB
:1007B800F200003003180130F300833154238331F1
:1007C80070084001B700080061018C0160018C13BA
:1007D80062018C13400198017D018C014001920156
:1007E8007D018D0140011811981618167A01260806
:1007F800F3390438A6002616400112147D010C14A2
:10080800400192147D018C1400307A01A20020303E
:10081800A100A6170B178B174001B91684313B248A
:1008280083310800F200F101721C1B2C1C2C1E2CB9
:100838007008F1070310F00D0310F20C7208031D85
:10084800262C272C182C7108080084315824843150
:100858008331E82384318131572184318231232245
:1008680084318231D12284312F2C803118287A01A9
:10087800A6012608F3390438A6002616A617013063
:100888009F00410190117A01261408007A01A601FF
:100898002608F3390438A6002616A6179F01410139
:1008A80090117A0126140800803043019E004530DB
:1008B8009F009D019C0141018C129616080064005E
:0A08C80080010131890B642C00341B
:020000040001F9
:04000E008C3FE73FFD
:02001600FF3FAA
:00000001FF
